:100000000C9434000C9449000C9449000C94490061
:100010000C9449000C9449000C9449000C9449003C
:100020000C9449000C9449000C9449000C9449002C
:100030000C9449000C9449000C9449000C9449001C
:100040000C9449000C9449000C9449000C9449000C
:100050000C9449000C9449000C9449000C944900FC
:100060000C9449000C94490011241FBECFEFD8E036
:10007000DEBFCDBF11E0A0E0B1E0E6E5F2E002C0F6
:1000800005900D92A230B107D9F70E940F010C9490
:1000900029010C940000239A249A259A2D980895FA
:1000A00090E0981301C008952B9825E02A95F1F768
:1000B00000002B9A25E02A95F1F700009F5FF1CF11
:1000C0002B9A08952B9808952C9A08952C980895AA
:1000D00024982C980895249A0895CF93C82F0E94AD
:1000E0006B00CC2331F00E94640081E0CF910C942E
:1000F00050000E946600F9CFCF930E946800C3B100
:1001000081E00E945000C4FB882780F9CF910895B8
:100110000E94680081E00C9450000F931F93CF93CE
:10012000DF93D0E0C0E0082F10E0C8010C2E02C021
:10013000959587950A94E2F781700E946D0021964B
:10014000C830D10591F70E9488000E947C00D82F0A
:100150000E947C00C82F0E947C0024E0829FC00186
:100160001124CC0F8C0F8D0FDF91CF911F910F9128
:1001700008950E946B0081E00E946D0084E30E945C
:10018000500080E00E946D0081E00E946D0081E0DF
:100190000E946D0081E00E946D0081E00E946D0070
:1001A00080E00E946D0080E00E946D0081E00E946E
:1001B0006D0088E30E94500080E00E946D0080E0A6
:1001C0000C946D00CF92DF92EF92FF92CF93DF936A
:1001D0000E946800D0E0C0E0C12CD12C76010E94C2
:1001E0007C0090E00C2E02C0880F991F0A94E2F761
:1001F000092E000CAA0BBB0BC80ED91EEA1EFB1E53
:100200002196C032D10559F70E947C00C701B60182
:10021000DF91CF91FF90EF90DF90CF9008950E94F3
:100220004B000E94B90085EA0E948D00C82F0E94F1
:10023000E200C13051F42D9A67377441814B9B40E5
:1002400031F42D9890E080E008952D98F5CF2D9A07
:06025000F9CFF894FFCF86
:020256000A0A92
:00000001FF
